:020000040000FA
:04000000FEEF7FF0A0
:101600000038170000521A00000000C21AB81AA4CD
:101610001A0000000000000000000048656C6C6FBC
:0B16200020576F726C64210A0D00005F
:10162C006100D4F4D9F46100D8F4DAF4DEC4F6F431
:10163C00DDC4F7F4F86A0800F550250AD8A429EFA0
:10164C000BF02BEF0BF07BEF0BF06100D4F4D9F423
:10165C006100D8F4DAF4DE2A000EDD22000E1C6ED6
:10166C00000E1B6E1BC51FF51CC520F51D681E68E2
:10167C006100D4F4D9F46100D8F4DAF4DEC4F6F4E1
:10168C00DDC4F7F4F86A0800F550250AD8A451EF28
:10169C000BF053EF0BF06CEF0BF06100D4F4D9F4BA
:1016AC006100D8F4DAF4DE2A000EDD22000E2B6E77
:1016BC00250E2A6E33C52CF534C52DF5F4EC0BF044
:1016CC00000E346E010E336E9BEF0BF06100D4F400
:1016DC00D9F46100D8F4DAF4DE2A000EDD22000E13
:1016EC00346E000E336E9BEF0BF06100D4F4D9F422
:1016FC006100D8F4DAF4DEC4F6F4DDC4F7F4F86A69
:10170C000800F5502A6E2B6A33C52CF534C52DF51F
:10171C00F4EC0BF06100D4F4D9F46100D8F4DAF4F1
:10172C00DE2A000EDD2266EF0BF01200AC90000EEC
:10173C00286E000E296E4DEC0DF0AC92000E286E4A
:10174C00000E296E48EC0DF0AC94000E286E000EC5
:10175C00296E57EC0DF0AC96000E286E000E296E1B
:10176C0043EC0DF0000E0201A16F000EA26F000EF3
:10177C00A36F000EA46F000EA56F000EA66F000ED7
:10178C00A76F000EA86F000EA96F000EAA6F200E97
:10179C00AB6F800EAC6F000EAD6F0C0EAE6F000E0B
:1017AC00AF6F000EB06F000EB16F000EB26F000E77
:1017BC00B36F000E286E000E296E5CEC0DF0000E5F
:1017CC00286E000E296E52EC0DF0000E286E000EE5
:1017DC00296E61EC0DF0000E216E12002C502D10B4
:1017EC00D8B4FBEF0BF0FDEF0BF006EF0CF02C5028
:1017FC002D10D8A404EF0CF006EF0CF00BEF0CF04E
:10180C002A503EEC0DF03EEF0CF020EE04F02C5084
:10181C00D9262D50DA22DE50DE10D8B418EF0CF099
:10182C001AEF0CF035EF0CF020EE04F02C50D9260A
:10183C002D50DA2210EE02F02C50E1262D50E2222F
:10184C00DE50E65CE650800A326EDE50800A32587A
:10185C00D8B033EF0CF035EF0CF03EEF0CF020EE7F
:10186C0002F02C50D9262D50DA22DE2A000EDD2271
:10187C001200000EBE6E000EBF6E000EC06E3F0E4C
:10188C00C66E700EC76EFD0EC86E000E0401006FA2
:10189C00800E086F010E106F000E016F000E096FA5
:1018AC00000E116F000E026F000E0A6F000E126F09
:1018BC00370E036FF00E0B6F13693F0E046FF00EB3
:1018CC000C6F14690D0E0201726F100E106F000E6A
:1018DC000401056F000E066F000E076F000E0D6FF2
:1018EC00000E0E6F000E0F6F000E156F000E166FB0
:1018FC00000E176F12003BC53FF53CC540F5000EBE
:10190C001A6E000E196E9DEF0CF039C533F53AC501
:10191C0034F53F0E356E050E366E3DC537F53EC5BA
:10192C0038F516EC0BF03350192634501A2261009E
:10193C00FCF4F6F4610000F5F7F4F86A0800F550D1
:10194C000009D8A4ACEF0CF0AEEF0CF08BEF0CF060
:10195C0019C539F51AC53AF5120035EC0DF0C0B2BF
:10196C00BAEF0CF0BDEF0CF0010EBEEF0CF0000E58
:10197C00FF0A476E4746C0504718FD0B4718C06E0C
:10198C001B0E416E160E426EF5EC0CF0030E486EFB
:10199C008A0E476E560EE82EFED7472EFCD7482EE1
:1019AC00FAD7B5EF0CF0FEEF7FF0D69AB490D68054
:1019BC00000E286E000E296E70EC0DF0B990D682D8
:1019CC00000E286E000E296E6BEC0DF0BD90D684C7
:1019DC00000E286E000E296E66EC0DF01200430E00
:1019EC00456E050E466E000E396E000E3A6E41C500
:1019FC003BF542C53CF5450E3D6E050E3E6E81EC49
:101A0C000CF01200600E0001AD6F700EAE6F000E88
:101A1C00AF6F000EB36F020EB16F000EB26F000EFF
:101A2C00B06F000EAC6F120001EE60F1200EEE6A8A
:101A3C00E806FDE101EE01F1270EEE6AE806FDE194
:101A4C000001B3EF0CF0286EB7A22FEF0DF031EFC1
:101A5C000DF02AEF0DF06100A0F4A3F2120008ECD7
:101A6C000DF0DBEC0CF09CEC0BF03FEC0CF01200EE
:101A7C00296E295029EC0DF0120028C555F529C501
:101A8C0056F5120028C559F529C55AF5120028C576
:101A9C005BF529C55CF5120028C54BF529C54CF53D
:101AAC00120028C557F529C558F5120028C54DF563
:101ABC0029C54EF5120028C549F529C54AF512006D
:101ACC0028C54FF529C550F5120028C551F529C573
:0E1ADC0052F5120028C553F529C554F5120025
:04FFFC001AEF0DF0FB
:020000040020DA
:10000000FF0FFF0FFF0FFF0FFF0FFF0FFF0FFF0F80
:10001000FF0FFF0FFF0FFF0FFF0FFF0FFF0FFF0F70
:020000040030CA
:0A000000ECFFF7FF9FFFFFFFFFFF7B
:00000001FF
