:020000040000FA
:04000000FEEF7FF0A0
:1016000000381700003E1A00000000AE1AA41A901D
:101610001A0000000000000000000048656C6C6FBC
:0B16200020576F726C64210A0D00005F
:10162C006100D4F4D9F46100D8F4DAF4DEC4F6F431
:10163C00DDC4F7F4F86A0800F550250AD8A429EFA0
:10164C000BF02BEF0BF07BEF0BF06100D4F4D9F423
:10165C006100D8F4DAF4DE2A000EDD22000E1C6ED6
:10166C00000E1B6E1BC51FF51CC520F51D681E68E2
:10167C006100D4F4D9F46100D8F4DAF4DEC4F6F4E1
:10168C00DDC4F7F4F86A0800F550250AD8A451EF28
:10169C000BF053EF0BF06CEF0BF06100D4F4D9F4BA
:1016AC006100D8F4DAF4DE2A000EDD22000E2B6E77
:1016BC00250E2A6E33C52CF534C52DF5EAEC0BF04E
:1016CC00000E346E010E336E9BEF0BF06100D4F400
:1016DC00D9F46100D8F4DAF4DE2A000EDD22000E13
:1016EC00346E000E336E9BEF0BF06100D4F4D9F422
:1016FC006100D8F4DAF4DEC4F6F4DDC4F7F4F86A69
:10170C000800F5502A6E2B6A33C52CF534C52DF51F
:10171C00EAEC0BF06100D4F4D9F46100D8F4DAF4FB
:10172C00DE2A000EDD2266EF0BF01200B090000EE8
:10173C00286E000E296E43EC0DF0B092000E286E50
:10174C00000E296E3EEC0DF0B094000E286E000ECB
:10175C00296E4DEC0DF0B096000E286E000E296E21
:10176C0039EC0DF0000E0201B46F000EB66F000ED6
:10177C00B86F000EBA6F000EBC6F200EBE6F800EDD
:10178C00BF6F000EC06F0C0EC16F000EC26F000E4B
:10179C00C36F000EC46F000EC56F000EC66F000E37
:1017AC00286E000E296E52EC0DF0000E286E000E05
:1017BC00296E48EC0DF0000E286E000E296E57ECC9
:1017CC000DF0000E216E12002C502D10D8B4F1EF3C
:1017DC000BF0F3EF0BF0FCEF0BF02C502D10D8A40A
:1017EC00FAEF0BF0FCEF0BF001EF0CF02A5034EC9D
:1017FC000DF034EF0CF020EE04F02C50D9262D50C7
:10180C00DA22DE50DE10D8B40EEF0CF010EF0CF034
:10181C002BEF0CF020EE04F02C50D9262D50DA22B0
:10182C0010EE02F02C50E1262D50E222DE50E65C48
:10183C00E650800A326EDE50800A3258D8B029EF5A
:10184C000CF02BEF0CF034EF0CF020EE02F02C50DF
:10185C00D9262D50DA22DE2A000EDD221200000ECF
:10186C00BE6E000EBF6E000EC06E3F0EC66E700ECA
:10187C00C76EFD0EC86E000E0401006F800E086F5F
:10188C00010E106F000E016F000E096F000E116F2C
:10189C00000E026F000E0A6F000E126F370E036FF0
:1018AC00F00E0B6F13693F0E046FF00E0C6F146982
:1018BC000D0E0201746F130E106F000E0401056FF4
:1018CC00000E066F000E076F000E0D6F000E0E6FF0
:1018DC00000E0F6F000E156F000E166F000E176FB7
:1018EC0012003BC53FF53CC540F5000E1A6E000ECC
:1018FC00196E93EF0CF039C533F53AC534F53F0E3C
:10190C00356E050E366E3DC537F53EC538F516EC11
:10191C000BF03350192634501A226100FCF4F6F403
:10192C00610000F5F7F4F86A0800F5500009D8A436
:10193C00A2EF0CF0A4EF0CF081EF0CF019C539F507
:10194C001AC53AF512002BEC0DF0C0B2B0EF0CF04A
:10195C00B3EF0CF0010EB4EF0CF0000EFF0A476E63
:10196C004746C0504718FD0B4718C06E1B0E416E02
:10197C00160E426EEBEC0CF0030E486E8A0E476EA0
:10198C00560EE82EFED7472EFCD7482EFAD7ABEFD3
:10199C000CF0FEEF7FF0D69AB490D680000E286E35
:1019AC00000E296E66EC0DF0B990D682000E286EF2
:1019BC00000E296E61EC0DF0BD90D684000E286EE1
:1019CC00000E296E5CEC0DF01200430E456E050EF8
:1019DC00466E000E396E000E3A6E41C53BF542C59F
:1019EC003CF5450E3D6E050E3E6E77EC0CF012008C
:1019FC00600E0001AD6F700EAE6F000EAF6F000E7B
:101A0C00B36F020EB16F000EB26F000EB06F000E0E
:101A1C00AC6F120001EE60F1200EEE6AE806FDE1FB
:101A2C0001EE01F1270EEE6AE806FDE10001A9EFD7
:101A3C000CF0286EBBA225EF0DF027EF0DF020EF78
:101A4C000DF06100A0F4B6F21200FEEC0CF09CEC70
:101A5C000BF0D1EC0CF035EC0CF01200296E295087
:101A6C001FEC0DF0120028C555F529C556F51200CE
:101A7C0028C559F529C55AF5120028C55BF529C5A5
:101A8C005CF5120028C54BF529C54CF5120028C58C
:101A9C0057F529C558F5120028C54DF529C54EF541
:101AAC00120028C549F529C54AF5120028C54FF57D
:101ABC0029C550F5120028C551F529C552F512005B
:0A1ACC0028C553F529C554F5120092
:04FFFC0010EF0DF005
:020000040020DA
:10000000FF0FFF0FFF0FFF0FFF0FFF0FFF0FFF0F80
:10001000FF0FFF0FFF0FFF0FFF0FFF0FFF0FFF0F70
:020000040030CA
:0A000000FFFFF7FFFFFFFFFFFFFF08
:00000001FF
