:020000040000FA
:04000000FEEF7FF0A0
:10160000000C170000D21900000000261A1C1A084E
:101610001A0000000000000000000048656C6C6FBC
:0B16200020576F726C64210A0D00005F
:10162C006100D4F4D9F46100D8F4DAF4DFC4F6F430
:10163C00160EF76EF86A0800F550250AD8A443D0A8
:10164C006100D4F4D9F46100D8F4DAF4DF2A000E86
:10165C001C6E000E1B6E1BC51FF51CC520F51D68EE
:10166C001E686100D4F4D9F46100D8F4DAF4DFC454
:10167C00F6F4160EF76EF86A0800F550250AD8A491
:10168C0016D06100D4F4D9F46100D8F4DAF4DF2A6E
:10169C00000E2B6E250E2A6E33C52CF534C52DF598
:1016AC0016EC0CF0000E346E010E336E120061005D
:1016BC00D4F4D9F46100D8F4DAF4DF2A000E346ED5
:1016CC00000E336E12006100D4F4D9F46100D8F42A
:1016DC00DAF4DFC4F6F4160EF76EF86A0800F5506B
:1016EC002A6E2B6A33C52CF534C52DF516EC0CF08F
:1016FC006100D4F4D9F46100D8F4DAF4DF2AD2D73B
:10170C00B090000E286E000E296EFFEC0CF0B0921B
:10171C00000E286E000E296EFAEC0CF0B094000E40
:10172C00286E000E296E09EC0DF0B096000E286E96
:10173C00000E296EF5EC0CF0000E0201B46F000ED9
:10174C00B66F000EB86F000EBA6F000EBC6F200E95
:10175C00BE6F800EBF6F000EC06F0C0EC16F000EFF
:10176C00C26F000EC36F000EC46F000EC56F000E6B
:10177C00C66F000E286E000E296E0EEC0DF0000EDA
:10178C00286E000E296E04EC0DF0000E286E000E73
:10179C00296E13EC0DF0000E216E1200000EBE6EC1
:1017AC00000EBF6E000EC06E3F0EC66E700EC76E82
:1017BC00FD0EC86E000E0401006F800E086F010E46
:1017CC00106F000E016F000E096F000E116F000EEE
:1017DC00026F000E0A6F000E126F370E036FF00EC1
:1017EC000B6F13693F0E046FF00E0C6F14690D0E26
:1017FC000201746F130E106F000E0401056F000EC2
:10180C00066F000E076F000E0D6F000E0E6F000EB0
:10181C000F6F000E156F000E166F000E176F120073
:10182C002C502D10D8B404D02C502D10D8A404D08A
:10183C002A50F0EC0CF0120020EE04F02C50D926BB
:10184C002D50DA22DE50DE10D8B416D020EE04F083
:10185C002C50D9262D50DA2210EE02F02C50E12615
:10186C002D50E222DE50E65CE650800A326EDE50ED
:10187C00800A3258D8B0120020EE02F02C50D92633
:10188C002D50DA22DE2A000EDD2212003BC53EF579
:10189C00000E1A6E000E196E12D039C533F53AC50A
:1018AC0034F53E0E356E050E366E3CC537F53DC52E
:1018BC0038F516EC0BF03350192634501A2261000F
:1018CC00F8F4F6F4160EF76EF86A0800F5500009F5
:1018DC00D8A4E3D719C539F51AC53AF51200E0ECCE
:1018EC000CF0C0A202D0010E01D0000EFF0A446E13
:1018FC004446C0504418FD0B4418C06E1B0E3F6E7E
:10190C00C0EC0CF0030E456E8A0E446E560EE82E9B
:10191C00FED7442EFCD7452EFAD7E3D7D69AB490EF
:10192C00D680000E286E000E296E22EC0DF0B990B8
:10193C00D682000E286E000E296E1DEC0DF0BD90A7
:10194C00D684000E286E000E296E18EC0DF01200D5
:10195C00600E0001AD6F700EAE6F000EAF6F000E1B
:10196C00B36F020EB16F000EB26F000EB06F000EAF
:10197C00AC6F1200400E426E050E436E000E396EB7
:10198C00000E3A6E3FC53BF5420E3C6E050E3D6EA9
:10199C004CEC0CF0120001EE60F1200EEE6AE80641
:1019AC00FDE101EE01F1270EEE6AE806FDE1000112
:1019BC0075EF0CF0AEEC0CF086EC0BF094EC0CF03C
:1019CC00D4EC0BF01200286EBBA2FED76100A0F481
:1019DC00B6F21200296E2950E9EC0CF0120028C561
:1019EC0052F529C553F5120028C556F529C557F5EA
:1019FC00120028C558F529C559F5120028C548F517
:101A0C0029C549F5120028C554F529C555F512000C
:101A1C0028C54AF529C54BF5120028C546F529C538
:101A2C0047F5120028C54CF529C54DF5120028C5FF
:101A3C004EF529C54FF5120028C550F529C551F5AD
:021A4C00120086
:04FFFC00D1EF0CF045
:020000040020DA
:10000000FF0FFF0FFF0FFF0FFF0FFF0FFF0FFF0F80
:10001000FF0FFF0FFF0FFF0FFF0FFF0FFF0FFF0F70
:020000040030CA
:0A000000FFFFF7FFFFFFFFFFFFFF08
:00000001FF
