:020000040000FA
:04000000FEEF7FF0A0
:101600000048656C6C6F20576F726C64210A0D0086
:0116100000D9
:10161200AC90000E226A236A7EEC0CF0AC92000EB3
:10162200226A236A7DEC0CF0AC94000E226A236AD3
:101632007FEC0CF0AC96000E226A236A7CEC0CF074
:101642000201A16BA26BA36BA46BA56BA66BA76B2C
:10165200A86BA96BAA6B200EAB6F800EAC6FAD6B43
:101662000C0EAE6FAF6BB06BB16BB26BB36B000EA7
:10167200226A236A6EEC0CF0000E226A236A69EC7D
:101682000CF0000E226A236A73EC0CF01B6A120043
:1016920024D82AD8250A17E120D8DF2A1ED824D830
:1016A200250A0CE11AD8DF2A256A250E246E24D8D1
:1016B20082EC0BF02E6A010E2D6E010C0ED8DF2A81
:1016C2002D6A2E6A120009D80FD8246E256A14D802
:1016D20082EC0BF002D8DF2AEDD76100BCF4D9F41A
:1016E2006100C0F4DAF41200DFC4F6F4160EF76EED
:1016F200F86A0800F55012002DC526F52EC527F50B
:1017020012002650271003E02650271003E1245030
:1017120078EF0CF01ED8DE50DE1011E01AD810EE71
:1017220002F02650E1262750E222DE50E65CE65027
:10173200800A2C6EDE50800A2C58D8B0120020EE9F
:1017420002F02650D9262750DA22DE2A000EDD22A8
:10175200000C20EE04F02650D9262750DA2212007F
:10176200BE6ABF6AC06A3F0EC66E700EC76EFD0EBD
:10177200C86E0401006B800E086F010E106F016BC2
:10178200096B116B026B0A6B126B370E036FF00E53
:101792000B6F13693F0E046FF00E0C6F14690D0E80
:1017A2000201726F100E106F0401056B066B076B5E
:1017B2000D6B0E6B0F6B156B166B176B120035C52D
:1017C20038F5196A1A6A12D033C52DF534C52EF5CB
:1017D200380E2F6E050E306E36C531F537C532F52F
:1017E20049EC0BF02D5019262E501A226100E0F41C
:1017F200F6F4160EF76EF86A0800F550E5E119C521
:1018020033F51AC534F512005AEC0CF0010EC0A2E1
:10181200000EFF0A3E6E3E46C0503E18FD0B3E18BB
:10182200C06E010E396E36EC0CF0030E3F6E8A0E5E
:101832003E6E560EE82EFED73E2EFCD73F2EFAD72E
:10184200E5D7D69AB490D680000E226A236A82EC3B
:101852000CF0B990D682000E226A236A81EC0CF059
:10186200BD90D684226A236A000C3A0E3C6E050EA5
:101872003D6E336A346A39C535F53C0E366E050E57
:10188200376EE0EF0BF0600E0001AD6F700EAE6FC1
:10189200AF6BB36B020EB16FB26BB06BAC6B12007D
:1018A20001EE01F1210EEE6AE806FDE1000105EF0D
:1018B2000CF044EC0CF022EC0CF009EC0BF0B1EF64
:1018C2000BF0226EB7A2FED7610088F4A3F21200D9
:1018D20022C542F523C543F5120022C544F523C5AE
:1018E20045F5120022C540F523C541F51200236ECD
:1018F200235062EF0CF012001200120012001200CC
:0419020012001200BD
:04FFFC0051EF0CF0C5
:020000040020DA
:10000000FF0FFF0FFF0FFF0FFF0FFF0FFF0FFF0F80
:10001000FF0FFF0FFF0FFF0FFF0FFF0FFF0FFF0F70
:020000040030CA
:0A000000ECFFF7FF9FFFFFFFFFFF7B
:00000001FF
